{
  "contractName": "ExampleOracleSimple",
  "abi": [
    {
      "inputs": [
        {
          "internalType": "address",
          "name": "factory",
          "type": "address"
        },
        {
          "internalType": "address",
          "name": "tokenA",
          "type": "address"
        },
        {
          "internalType": "address",
          "name": "tokenB",
          "type": "address"
        }
      ],
      "stateMutability": "nonpayable",
      "type": "constructor"
    },
    {
      "inputs": [],
      "name": "PERIOD",
      "outputs": [
        {
          "internalType": "uint256",
          "name": "",
          "type": "uint256"
        }
      ],
      "stateMutability": "view",
      "type": "function"
    },
    {
      "inputs": [],
      "name": "blockTimestampLast",
      "outputs": [
        {
          "internalType": "uint32",
          "name": "",
          "type": "uint32"
        }
      ],
      "stateMutability": "view",
      "type": "function"
    },
    {
      "inputs": [],
      "name": "price0Average",
      "outputs": [
        {
          "internalType": "uint224",
          "name": "_x",
          "type": "uint224"
        }
      ],
      "stateMutability": "view",
      "type": "function"
    },
    {
      "inputs": [],
      "name": "price0CumulativeLast",
      "outputs": [
        {
          "internalType": "uint256",
          "name": "",
          "type": "uint256"
        }
      ],
      "stateMutability": "view",
      "type": "function"
    },
    {
      "inputs": [],
      "name": "price1Average",
      "outputs": [
        {
          "internalType": "uint224",
          "name": "_x",
          "type": "uint224"
        }
      ],
      "stateMutability": "view",
      "type": "function"
    },
    {
      "inputs": [],
      "name": "price1CumulativeLast",
      "outputs": [
        {
          "internalType": "uint256",
          "name": "",
          "type": "uint256"
        }
      ],
      "stateMutability": "view",
      "type": "function"
    },
    {
      "inputs": [],
      "name": "token0",
      "outputs": [
        {
          "internalType": "address",
          "name": "",
          "type": "address"
        }
      ],
      "stateMutability": "view",
      "type": "function"
    },
    {
      "inputs": [],
      "name": "token1",
      "outputs": [
        {
          "internalType": "address",
          "name": "",
          "type": "address"
        }
      ],
      "stateMutability": "view",
      "type": "function"
    },
    {
      "inputs": [],
      "name": "update",
      "outputs": [],
      "stateMutability": "nonpayable",
      "type": "function"
    },
    {
      "inputs": [
        {
          "internalType": "address",
          "name": "token",
          "type": "address"
        },
        {
          "internalType": "uint256",
          "name": "amountIn",
          "type": "uint256"
        }
      ],
      "name": "consult",
      "outputs": [
        {
          "internalType": "uint256",
          "name": "amountOut",
          "type": "uint256"
        }
      ],
      "stateMutability": "view",
      "type": "function"
    }
  ],
  "bytecode": "0x60e06040523480156200001157600080fd5b5060405162001c5e38038062001c5e833981810160405260608110156200003757600080fd5b81019080805190602001909291908051906020019092919080519060200190929190505050600062000076848484620004b060201b620010ce1760201c565b90508073ffffffffffffffffffffffffffffffffffffffff1660808173ffffffffffffffffffffffffffffffffffffffff1660601b815250508073ffffffffffffffffffffffffffffffffffffffff16630dfe16816040518163ffffffff1660e01b815260040160206040518083038186803b158015620000f657600080fd5b505afa1580156200010b573d6000803e3d6000fd5b505050506040513d60208110156200012257600080fd5b810190808051906020019092919050505073ffffffffffffffffffffffffffffffffffffffff1660a08173ffffffffffffffffffffffffffffffffffffffff1660601b815250508073ffffffffffffffffffffffffffffffffffffffff1663d21220a76040518163ffffffff1660e01b815260040160206040518083038186803b158015620001b057600080fd5b505afa158015620001c5573d6000803e3d6000fd5b505050506040513d6020811015620001dc57600080fd5b810190808051906020019092919050505073ffffffffffffffffffffffffffffffffffffffff1660c08173ffffffffffffffffffffffffffffffffffffffff1660601b815250508073ffffffffffffffffffffffffffffffffffffffff16635909c0d56040518163ffffffff1660e01b815260040160206040518083038186803b1580156200026a57600080fd5b505afa1580156200027f573d6000803e3d6000fd5b505050506040513d60208110156200029657600080fd5b81019080805190602001909291905050506000819055508073ffffffffffffffffffffffffffffffffffffffff16635a3d54936040518163ffffffff1660e01b815260040160206040518083038186803b158015620002f457600080fd5b505afa15801562000309573d6000803e3d6000fd5b505050506040513d60208110156200032057600080fd5b81019080805190602001909291905050506001819055506000808273ffffffffffffffffffffffffffffffffffffffff16630902f1ac6040518163ffffffff1660e01b815260040160606040518083038186803b1580156200038157600080fd5b505afa15801562000396573d6000803e3d6000fd5b505050506040513d6060811015620003ad57600080fd5b81019080805190602001909291908051906020019092919080519060200190929190505050600260008291906101000a81548163ffffffff021916908363ffffffff1602179055508193508294505050506000826dffffffffffffffffffffffffffff16141580156200043157506000816dffffffffffffffffffffffffffff1614155b620004a4576040517f08c379a00000000000000000000000000000000000000000000000000000000081526004018080602001828103825260208152602001807f4578616d706c654f7261636c6553696d706c653a204e4f5f524553455256455381525060200191505060405180910390fd5b5050505050506200078f565b6000806000620004c785856200061360201b60201c565b91509150858282604051602001808373ffffffffffffffffffffffffffffffffffffffff1673ffffffffffffffffffffffffffffffffffffffff1660601b81526014018273ffffffffffffffffffffffffffffffffffffffff1673ffffffffffffffffffffffffffffffffffffffff1660601b8152601401925050506040516020818303038152906040528051906020012060405160200180807fff000000000000000000000000000000000000000000000000000000000000008152506001018373ffffffffffffffffffffffffffffffffffffffff1673ffffffffffffffffffffffffffffffffffffffff1660601b8152601401828152602001807f96e8ac4277198ff8b6f785478aa9a39f403cb768dd02cbee326c3e7da348845f815250602001925050506040516020818303038152906040528051906020012060001c925050509392505050565b6000808273ffffffffffffffffffffffffffffffffffffffff168473ffffffffffffffffffffffffffffffffffffffff1614156200069d576040517f08c379a000000000000000000000000000000000000000000000000000000000815260040180806020018281038252602581526020018062001c396025913960400191505060405180910390fd5b8273ffffffffffffffffffffffffffffffffffffffff168473ffffffffffffffffffffffffffffffffffffffff1610620006d9578284620006dc565b83835b8092508193505050600073ffffffffffffffffffffffffffffffffffffffff168273ffffffffffffffffffffffffffffffffffffffff16141562000788576040517f08c379a000000000000000000000000000000000000000000000000000000000815260040180806020018281038252601e8152602001807f556e697377617056324c6962726172793a205a45524f5f41444452455353000081525060200191505060405180910390fd5b9250929050565b60805160601c60a05160601c60c05160601c61146a620007cf60003980610407528061080a5250806102dd52806103035250806105a5525061146a6000f3fe608060405234801561001057600080fd5b506004361061009e5760003560e01c8063a2e6204511610066578063a2e62045146101e5578063a6bb4539146101ef578063b4d1d79514610249578063c5700a0214610267578063d21220a7146102915761009e565b80630dfe1681146100a35780633ddac953146100ed5780635909c0d51461014f5780635a3d54931461016d5780635e6aaf2c1461018b575b600080fd5b6100ab6102db565b604051808273ffffffffffffffffffffffffffffffffffffffff1673ffffffffffffffffffffffffffffffffffffffff16815260200191505060405180910390f35b6101396004803603604081101561010357600080fd5b81019080803573ffffffffffffffffffffffffffffffffffffffff169060200190929190803590602001909291905050506102ff565b6040518082815260200191505060405180910390f35b61015761055b565b6040518082815260200191505060405180910390f35b610175610561565b6040518082815260200191505060405180910390f35b610193610567565b60405180827bffffffffffffffffffffffffffffffffffffffffffffffffffffffff167bffffffffffffffffffffffffffffffffffffffffffffffffffffffff16815260200191505060405180910390f35b6101ed61059b565b005b6101f76107b7565b60405180827bffffffffffffffffffffffffffffffffffffffffffffffffffffffff167bffffffffffffffffffffffffffffffffffffffffffffffffffffffff16815260200191505060405180910390f35b6102516107eb565b6040518082815260200191505060405180910390f35b61026f6107f2565b604051808263ffffffff1663ffffffff16815260200191505060405180910390f35b610299610808565b604051808273ffffffffffffffffffffffffffffffffffffffff1673ffffffffffffffffffffffffffffffffffffffff16815260200191505060405180910390f35b7f000000000000000000000000000000000000000000000000000000000000000081565b60007f000000000000000000000000000000000000000000000000000000000000000073ffffffffffffffffffffffffffffffffffffffff168373ffffffffffffffffffffffffffffffffffffffff161415610405576103ea6103e58360036040518060200160405290816000820160009054906101000a90047bffffffffffffffffffffffffffffffffffffffffffffffffffffffff167bffffffffffffffffffffffffffffffffffffffffffffffffffffffff167bffffffffffffffffffffffffffffffffffffffffffffffffffffffff168152505061082c90919063ffffffff16565b610923565b71ffffffffffffffffffffffffffffffffffff169050610555565b7f000000000000000000000000000000000000000000000000000000000000000073ffffffffffffffffffffffffffffffffffffffff168373ffffffffffffffffffffffffffffffffffffffff16146104a9576040517f08c379a00000000000000000000000000000000000000000000000000000000081526004018080602001828103825260228152602001806113ec6022913960400191505060405180910390fd5b61053e6105398360046040518060200160405290816000820160009054906101000a90047bffffffffffffffffffffffffffffffffffffffffffffffffffffffff167bffffffffffffffffffffffffffffffffffffffffffffffffffffffff167bffffffffffffffffffffffffffffffffffffffffffffffffffffffff168152505061082c90919063ffffffff16565b610923565b71ffffffffffffffffffffffffffffffffffff1690505b92915050565b60005481565b60015481565b60048060000160009054906101000a90047bffffffffffffffffffffffffffffffffffffffffffffffffffffffff16905081565b60008060006105c97f0000000000000000000000000000000000000000000000000000000000000000610938565b9250925092506000600260009054906101000a900463ffffffff1682039050620151808163ffffffff16101561064a576040517f08c379a000000000000000000000000000000000000000000000000000000000815260040180806020018281038252602781526020018061140e6027913960400191505060405180910390fd5b60405180602001604052808263ffffffff1660005487038161066857fe5b047bffffffffffffffffffffffffffffffffffffffffffffffffffffffff16815250600360008201518160000160006101000a8154817bffffffffffffffffffffffffffffffffffffffffffffffffffffffff02191690837bffffffffffffffffffffffffffffffffffffffffffffffffffffffff16021790555090505060405180602001604052808263ffffffff1660015486038161070457fe5b047bffffffffffffffffffffffffffffffffffffffffffffffffffffffff16815250600460008201518160000160006101000a8154817bffffffffffffffffffffffffffffffffffffffffffffffffffffffff02191690837bffffffffffffffffffffffffffffffffffffffffffffffffffffffff160217905550905050836000819055508260018190555081600260006101000a81548163ffffffff021916908363ffffffff16021790555050505050565b60038060000160009054906101000a90047bffffffffffffffffffffffffffffffffffffffffffffffffffffffff16905081565b6201518081565b600260009054906101000a900463ffffffff1681565b7f000000000000000000000000000000000000000000000000000000000000000081565b61083461108a565b60008090506000831480610899575083600001517bffffffffffffffffffffffffffffffffffffffffffffffffffffffff16838486600001517bffffffffffffffffffffffffffffffffffffffffffffffffffffffff16029250828161089657fe5b04145b61090b576040517f08c379a00000000000000000000000000000000000000000000000000000000081526004018080602001828103825260198152602001807f4669786564506f696e743a3a6d756c3a206f766572666c6f770000000000000081525060200191505060405180910390fd5b60405180602001604052808281525091505092915050565b6000607060ff168260000151901c9050919050565b6000806000610945610bc3565b90508373ffffffffffffffffffffffffffffffffffffffff16635909c0d56040518163ffffffff1660e01b815260040160206040518083038186803b15801561098d57600080fd5b505afa1580156109a1573d6000803e3d6000fd5b505050506040513d60208110156109b757600080fd5b810190808051906020019092919050505092508373ffffffffffffffffffffffffffffffffffffffff16635a3d54936040518163ffffffff1660e01b815260040160206040518083038186803b158015610a1057600080fd5b505afa158015610a24573d6000803e3d6000fd5b505050506040513d6020811015610a3a57600080fd5b8101908080519060200190929190505050915060008060008673ffffffffffffffffffffffffffffffffffffffff16630902f1ac6040518163ffffffff1660e01b815260040160606040518083038186803b158015610a9857600080fd5b505afa158015610aac573d6000803e3d6000fd5b505050506040513d6060811015610ac257600080fd5b810190808051906020019092919080519060200190929190805190602001909291905050509250925092508363ffffffff168163ffffffff1614610bb957600081850390508063ffffffff16610b38846dffffffffffffffffffffffffffff16866dffffffffffffffffffffffffffff16610bd9565b600001517bffffffffffffffffffffffffffffffffffffffffffffffffffffffff1602870196508063ffffffff16610b90856dffffffffffffffffffffffffffff16856dffffffffffffffffffffffffffff16610bd9565b600001517bffffffffffffffffffffffffffffffffffffffffffffffffffffffff160286019550505b5050509193909250565b60006401000000004281610bd357fe5b06905090565b610be161109d565b60008211610c3a576040517f08c379a00000000000000000000000000000000000000000000000000000000081526004018080602001828103825260268152602001806113c66026913960400191505060405180910390fd5b6000831415610c7857604051806020016040528060007bffffffffffffffffffffffffffffffffffffffffffffffffffffffff168152509050610eb4565b7fffffffffffffffffffffffffffffffffffffffffffffffffffffffffffffffff71ffffffffffffffffffffffffffffffffffff168311610db157600082607060ff1685901b81610cc557fe5b0490507fffffffffffffffffffffffffffffffffffffffffffffffffffffffffffffffff7bffffffffffffffffffffffffffffffffffffffffffffffffffffffff16811115610d7c576040517f08c379a000000000000000000000000000000000000000000000000000000000815260040180806020018281038252601e8152602001807f4669786564506f696e743a3a6672616374696f6e3a206f766572666c6f77000081525060200191505060405180910390fd5b6040518060200160405280827bffffffffffffffffffffffffffffffffffffffffffffffffffffffff16815250915050610eb4565b6000610dcd846e01000000000000000000000000000085610eba565b90507fffffffffffffffffffffffffffffffffffffffffffffffffffffffffffffffff7bffffffffffffffffffffffffffffffffffffffffffffffffffffffff16811115610e83576040517f08c379a000000000000000000000000000000000000000000000000000000000815260040180806020018281038252601e8152602001807f4669786564506f696e743a3a6672616374696f6e3a206f766572666c6f77000081525060200191505060405180910390fd5b6040518060200160405280827bffffffffffffffffffffffffffffffffffffffffffffffffffffffff168152509150505b92915050565b6000806000610ec98686610f9a565b9150915060008480610ed757fe5b868809905082811115610eeb576001820391505b80830392506000821415610f0d57848381610f0257fe5b049350505050610f93565b848210610f82576040517f08c379a000000000000000000000000000000000000000000000000000000000815260040180806020018281038252601a8152602001807f46756c6c4d6174683a2046554c4c4449565f4f564552464c4f5700000000000081525060200191505060405180910390fd5b610f8d838387610fed565b93505050505b9392505050565b60008060007fffffffffffffffffffffffffffffffffffffffffffffffffffffffffffffffff80610fc757fe5b84860990508385029250828103915082811015610fe5576001820391505b509250929050565b600080826000038316905080838161100157fe5b04925080858161100d57fe5b049450600181826000038161101e57fe5b04018402850194506000600190508084026002038102905080840260020381029050808402600203810290508084026002038102905080840260020381029050808402600203810290508084026002038102905080840260020381029050808602925050509392505050565b6040518060200160405280600081525090565b604051806020016040528060007bffffffffffffffffffffffffffffffffffffffffffffffffffffffff1681525090565b60008060006110dd8585611229565b91509150858282604051602001808373ffffffffffffffffffffffffffffffffffffffff1673ffffffffffffffffffffffffffffffffffffffff1660601b81526014018273ffffffffffffffffffffffffffffffffffffffff1673ffffffffffffffffffffffffffffffffffffffff1660601b8152601401925050506040516020818303038152906040528051906020012060405160200180807fff000000000000000000000000000000000000000000000000000000000000008152506001018373ffffffffffffffffffffffffffffffffffffffff1673ffffffffffffffffffffffffffffffffffffffff1660601b8152601401828152602001807f96e8ac4277198ff8b6f785478aa9a39f403cb768dd02cbee326c3e7da348845f815250602001925050506040516020818303038152906040528051906020012060001c925050509392505050565b6000808273ffffffffffffffffffffffffffffffffffffffff168473ffffffffffffffffffffffffffffffffffffffff1614156112b1576040517f08c379a00000000000000000000000000000000000000000000000000000000081526004018080602001828103825260258152602001806113a16025913960400191505060405180910390fd5b8273ffffffffffffffffffffffffffffffffffffffff168473ffffffffffffffffffffffffffffffffffffffff16106112eb5782846112ee565b83835b8092508193505050600073ffffffffffffffffffffffffffffffffffffffff168273ffffffffffffffffffffffffffffffffffffffff161415611399576040517f08c379a000000000000000000000000000000000000000000000000000000000815260040180806020018281038252601e8152602001807f556e697377617056324c6962726172793a205a45524f5f41444452455353000081525060200191505060405180910390fd5b925092905056fe556e697377617056324c6962726172793a204944454e544943414c5f4144445245535345534669786564506f696e743a3a6672616374696f6e3a206469766973696f6e206279207a65726f4578616d706c654f7261636c6553696d706c653a20494e56414c49445f544f4b454e4578616d706c654f7261636c6553696d706c653a20504552494f445f4e4f545f454c4150534544a26469706673582212203b4ec1f4883f00a28a70508b3a4d35dccda4f2d7eec6a0bd3e500df0082d571e64736f6c63430006060033556e697377617056324c6962726172793a204944454e544943414c5f414444524553534553",
  "immutableReferences": {
    "4039": [
      {
        "length": 32,
        "start": 1445
      }
    ],
    "4041": [
      {
        "length": 32,
        "start": 733
      },
      {
        "length": 32,
        "start": 771
      }
    ],
    "4043": [
      {
        "length": 32,
        "start": 1031
      },
      {
        "length": 32,
        "start": 2058
      }
    ]
  },
  "source": "pragma solidity =0.6.6;\n\nimport '@uniswap/v2-core/contracts/interfaces/IUniswapV2Factory.sol';\nimport '@uniswap/v2-core/contracts/interfaces/IUniswapV2Pair.sol';\nimport '@uniswap/lib/contracts/libraries/FixedPoint.sol';\n\nimport '../libraries/UniswapV2OracleLibrary.sol';\nimport '../libraries/UniswapV2Library.sol';\n\n// fixed window oracle that recomputes the average price for the entire period once every period\n// note that the price average is only guaranteed to be over at least 1 period, but may be over a longer period\ncontract ExampleOracleSimple {\n    using FixedPoint for *;\n\n    uint public constant PERIOD = 24 hours;\n\n    IUniswapV2Pair immutable pair;\n    address public immutable token0;\n    address public immutable token1;\n\n    uint    public price0CumulativeLast;\n    uint    public price1CumulativeLast;\n    uint32  public blockTimestampLast;\n    FixedPoint.uq112x112 public price0Average;\n    FixedPoint.uq112x112 public price1Average;\n\n    constructor(address factory, address tokenA, address tokenB) public {\n        IUniswapV2Pair _pair = IUniswapV2Pair(UniswapV2Library.pairFor(factory, tokenA, tokenB));\n        pair = _pair;\n        token0 = _pair.token0();\n        token1 = _pair.token1();\n        price0CumulativeLast = _pair.price0CumulativeLast(); // fetch the current accumulated price value (1 / 0)\n        price1CumulativeLast = _pair.price1CumulativeLast(); // fetch the current accumulated price value (0 / 1)\n        uint112 reserve0;\n        uint112 reserve1;\n        (reserve0, reserve1, blockTimestampLast) = _pair.getReserves();\n        require(reserve0 != 0 && reserve1 != 0, 'ExampleOracleSimple: NO_RESERVES'); // ensure that there's liquidity in the pair\n    }\n\n    function update() external {\n        (uint price0Cumulative, uint price1Cumulative, uint32 blockTimestamp) =\n            UniswapV2OracleLibrary.currentCumulativePrices(address(pair));\n        uint32 timeElapsed = blockTimestamp - blockTimestampLast; // overflow is desired\n\n        // ensure that at least one full period has passed since the last update\n        require(timeElapsed >= PERIOD, 'ExampleOracleSimple: PERIOD_NOT_ELAPSED');\n\n        // overflow is desired, casting never truncates\n        // cumulative price is in (uq112x112 price * seconds) units so we simply wrap it after division by time elapsed\n        price0Average = FixedPoint.uq112x112(uint224((price0Cumulative - price0CumulativeLast) / timeElapsed));\n        price1Average = FixedPoint.uq112x112(uint224((price1Cumulative - price1CumulativeLast) / timeElapsed));\n\n        price0CumulativeLast = price0Cumulative;\n        price1CumulativeLast = price1Cumulative;\n        blockTimestampLast = blockTimestamp;\n    }\n\n    // note this will always return 0 before update has been called successfully for the first time.\n    function consult(address token, uint amountIn) external view returns (uint amountOut) {\n        if (token == token0) {\n            amountOut = price0Average.mul(amountIn).decode144();\n        } else {\n            require(token == token1, 'ExampleOracleSimple: INVALID_TOKEN');\n            amountOut = price1Average.mul(amountIn).decode144();\n        }\n    }\n}\n",
  "sourcePath": "/Users/loya/Code/fork-uniswap/periphery/contracts/examples/ExampleOracleSimple.sol",
  "compiler": {
    "name": "solc",
    "version": "0.6.6+commit.6c089d02.Emscripten.clang"
  },
  "schemaVersion": "3.3.4",
  "updatedAt": "2021-04-20T04:45:45.452Z",
  "devdoc": {
    "methods": {}
  },
  "userdoc": {
    "methods": {}
  }
}